{
  "_format": "hh-sol-artifact-1",
  "contractName": "AegisEscrow",
  "sourceName": "contracts/AegisEscrow.sol",
  "abi": [
    {
      "inputs": [
        {
          "internalType": "address",
          "name": "_agentRegistry",
          "type": "address"
        }
      ],
      "stateMutability": "nonpayable",
      "type": "constructor"
    },
    {
      "inputs": [],
      "name": "ECDSAInvalidSignature",
      "type": "error"
    },
    {
      "inputs": [
        {
          "internalType": "uint256",
          "name": "length",
          "type": "uint256"
        }
      ],
      "name": "ECDSAInvalidSignatureLength",
      "type": "error"
    },
    {
      "inputs": [
        {
          "internalType": "bytes32",
          "name": "s",
          "type": "bytes32"
        }
      ],
      "name": "ECDSAInvalidSignatureS",
      "type": "error"
    },
    {
      "inputs": [],
      "name": "InvalidShortString",
      "type": "error"
    },
    {
      "inputs": [
        {
          "internalType": "address",
          "name": "owner",
          "type": "address"
        }
      ],
      "name": "OwnableInvalidOwner",
      "type": "error"
    },
    {
      "inputs": [
        {
          "internalType": "address",
          "name": "account",
          "type": "address"
        }
      ],
      "name": "OwnableUnauthorizedAccount",
      "type": "error"
    },
    {
      "inputs": [],
      "name": "ReentrancyGuardReentrantCall",
      "type": "error"
    },
    {
      "inputs": [
        {
          "internalType": "address",
          "name": "token",
          "type": "address"
        }
      ],
      "name": "SafeERC20FailedOperation",
      "type": "error"
    },
    {
      "inputs": [
        {
          "internalType": "string",
          "name": "str",
          "type": "string"
        }
      ],
      "name": "StringTooLong",
      "type": "error"
    },
    {
      "anonymous": false,
      "inputs": [],
      "name": "EIP712DomainChanged",
      "type": "event"
    },
    {
      "anonymous": false,
      "inputs": [
        {
          "indexed": true,
          "internalType": "bytes32",
          "name": "attestationId",
          "type": "bytes32"
        },
        {
          "indexed": true,
          "internalType": "address",
          "name": "agent",
          "type": "address"
        },
        {
          "indexed": true,
          "internalType": "address",
          "name": "vendor",
          "type": "address"
        },
        {
          "indexed": false,
          "internalType": "address",
          "name": "token",
          "type": "address"
        },
        {
          "indexed": false,
          "internalType": "uint256",
          "name": "amount",
          "type": "uint256"
        }
      ],
      "name": "FundsLocked",
      "type": "event"
    },
    {
      "anonymous": false,
      "inputs": [
        {
          "indexed": true,
          "internalType": "bytes32",
          "name": "attestationId",
          "type": "bytes32"
        },
        {
          "indexed": true,
          "internalType": "address",
          "name": "agent",
          "type": "address"
        },
        {
          "indexed": false,
          "internalType": "address",
          "name": "token",
          "type": "address"
        },
        {
          "indexed": false,
          "internalType": "uint256",
          "name": "amount",
          "type": "uint256"
        }
      ],
      "name": "FundsRefunded",
      "type": "event"
    },
    {
      "anonymous": false,
      "inputs": [
        {
          "indexed": true,
          "internalType": "bytes32",
          "name": "attestationId",
          "type": "bytes32"
        },
        {
          "indexed": true,
          "internalType": "address",
          "name": "vendor",
          "type": "address"
        },
        {
          "indexed": false,
          "internalType": "address",
          "name": "token",
          "type": "address"
        },
        {
          "indexed": false,
          "internalType": "uint256",
          "name": "amount",
          "type": "uint256"
        }
      ],
      "name": "FundsReleased",
      "type": "event"
    },
    {
      "anonymous": false,
      "inputs": [
        {
          "indexed": true,
          "internalType": "address",
          "name": "previousOwner",
          "type": "address"
        },
        {
          "indexed": true,
          "internalType": "address",
          "name": "newOwner",
          "type": "address"
        }
      ],
      "name": "OwnershipTransferred",
      "type": "event"
    },
    {
      "inputs": [],
      "name": "LOCK_FUNDS_TYPEHASH",
      "outputs": [
        {
          "internalType": "bytes32",
          "name": "",
          "type": "bytes32"
        }
      ],
      "stateMutability": "view",
      "type": "function"
    },
    {
      "inputs": [],
      "name": "agentRegistry",
      "outputs": [
        {
          "internalType": "address",
          "name": "",
          "type": "address"
        }
      ],
      "stateMutability": "view",
      "type": "function"
    },
    {
      "inputs": [],
      "name": "eip712Domain",
      "outputs": [
        {
          "internalType": "bytes1",
          "name": "fields",
          "type": "bytes1"
        },
        {
          "internalType": "string",
          "name": "name",
          "type": "string"
        },
        {
          "internalType": "string",
          "name": "version",
          "type": "string"
        },
        {
          "internalType": "uint256",
          "name": "chainId",
          "type": "uint256"
        },
        {
          "internalType": "address",
          "name": "verifyingContract",
          "type": "address"
        },
        {
          "internalType": "bytes32",
          "name": "salt",
          "type": "bytes32"
        },
        {
          "internalType": "uint256[]",
          "name": "extensions",
          "type": "uint256[]"
        }
      ],
      "stateMutability": "view",
      "type": "function"
    },
    {
      "inputs": [
        {
          "internalType": "bytes32",
          "name": "",
          "type": "bytes32"
        }
      ],
      "name": "escrows",
      "outputs": [
        {
          "internalType": "address",
          "name": "agent",
          "type": "address"
        },
        {
          "internalType": "address",
          "name": "vendor",
          "type": "address"
        },
        {
          "internalType": "address",
          "name": "token",
          "type": "address"
        },
        {
          "internalType": "uint256",
          "name": "amount",
          "type": "uint256"
        },
        {
          "internalType": "bool",
          "name": "released",
          "type": "bool"
        },
        {
          "internalType": "bool",
          "name": "refunded",
          "type": "bool"
        }
      ],
      "stateMutability": "view",
      "type": "function"
    },
    {
      "inputs": [
        {
          "internalType": "bytes32",
          "name": "attestationId",
          "type": "bytes32"
        },
        {
          "internalType": "address",
          "name": "token",
          "type": "address"
        },
        {
          "internalType": "address",
          "name": "vendor",
          "type": "address"
        },
        {
          "internalType": "uint256",
          "name": "amount",
          "type": "uint256"
        }
      ],
      "name": "lockFunds",
      "outputs": [],
      "stateMutability": "nonpayable",
      "type": "function"
    },
    {
      "inputs": [
        {
          "internalType": "bytes32",
          "name": "attestationId",
          "type": "bytes32"
        },
        {
          "internalType": "address",
          "name": "agent",
          "type": "address"
        },
        {
          "internalType": "address",
          "name": "token",
          "type": "address"
        },
        {
          "internalType": "address",
          "name": "vendor",
          "type": "address"
        },
        {
          "internalType": "uint256",
          "name": "amount",
          "type": "uint256"
        },
        {
          "internalType": "uint256",
          "name": "deadline",
          "type": "uint256"
        },
        {
          "internalType": "bytes",
          "name": "signature",
          "type": "bytes"
        }
      ],
      "name": "lockFundsWithSignature",
      "outputs": [],
      "stateMutability": "nonpayable",
      "type": "function"
    },
    {
      "inputs": [
        {
          "internalType": "address",
          "name": "",
          "type": "address"
        }
      ],
      "name": "nonces",
      "outputs": [
        {
          "internalType": "uint256",
          "name": "",
          "type": "uint256"
        }
      ],
      "stateMutability": "view",
      "type": "function"
    },
    {
      "inputs": [],
      "name": "owner",
      "outputs": [
        {
          "internalType": "address",
          "name": "",
          "type": "address"
        }
      ],
      "stateMutability": "view",
      "type": "function"
    },
    {
      "inputs": [
        {
          "internalType": "bytes32",
          "name": "attestationId",
          "type": "bytes32"
        }
      ],
      "name": "refund",
      "outputs": [],
      "stateMutability": "nonpayable",
      "type": "function"
    },
    {
      "inputs": [
        {
          "internalType": "bytes32",
          "name": "attestationId",
          "type": "bytes32"
        }
      ],
      "name": "releaseFunds",
      "outputs": [],
      "stateMutability": "nonpayable",
      "type": "function"
    },
    {
      "inputs": [],
      "name": "renounceOwnership",
      "outputs": [],
      "stateMutability": "nonpayable",
      "type": "function"
    },
    {
      "inputs": [
        {
          "internalType": "address",
          "name": "_agentRegistry",
          "type": "address"
        }
      ],
      "name": "setAgentRegistry",
      "outputs": [],
      "stateMutability": "nonpayable",
      "type": "function"
    },
    {
      "inputs": [
        {
          "internalType": "address",
          "name": "newOwner",
          "type": "address"
        }
      ],
      "name": "transferOwnership",
      "outputs": [],
      "stateMutability": "nonpayable",
      "type": "function"
    }
  ],
  "bytecode": "0x610160604052348015610010575f5ffd5b50604051611a9c380380611a9c83398101604081905261002f91610250565b604080518082018252600b81526a4165676973457363726f7760a81b602080830191909152825180840190935260018352603160f81b9083015290338061009057604051631e4fbdf760e01b81525f60048201526024015b60405180910390fd5b61009981610192565b5060017f9b779b17422d0df92223018b32b4d1fa46e071723d6817e2486d003becc55f00556100c98260016101e1565b610120526100d88160026101e1565b61014052815160208084019190912060e052815190820120610100524660a05261016460e05161010051604080517f8b73c3c69bb8fe3d512ecc4cf759cc79239f7b179b0ffacaa9a75d522b39400f60208201529081019290925260608201524660808201523060a08201525f9060c00160405160208183030381529060405280519060200120905090565b60805250503060c052600580546001600160a01b0319166001600160a01b0392909216919091179055610427565b5f80546001600160a01b038381166001600160a01b0319831681178455604051919092169283917f8be0079c531659141344cd1fd0a4f28419497f9722a3daafe3b4186f6b6457e09190a35050565b5f6020835110156101fc576101f583610213565b905061020d565b816102078482610315565b5060ff90505b92915050565b5f5f829050601f8151111561023d578260405163305a27a960e01b815260040161008791906103cf565b805161024882610404565b179392505050565b5f60208284031215610260575f5ffd5b81516001600160a01b0381168114610276575f5ffd5b9392505050565b634e487b7160e01b5f52604160045260245ffd5b600181811c908216806102a557607f821691505b6020821081036102c357634e487b7160e01b5f52602260045260245ffd5b50919050565b601f82111561031057805f5260205f20601f840160051c810160208510156102ee5750805b601f840160051c820191505b8181101561030d575f81556001016102fa565b50505b505050565b81516001600160401b0381111561032e5761032e61027d565b6103428161033c8454610291565b846102c9565b6020601f821160018114610374575f831561035d5750848201515b5f19600385901b1c1916600184901b17845561030d565b5f84815260208120601f198516915b828110156103a35787850151825560209485019460019092019101610383565b50848210156103c057868401515f19600387901b60f8161c191681555b50505050600190811b01905550565b602081525f82518060208401528060208501604085015e5f604082850101526040601f19601f83011684010191505092915050565b805160208083015191908110156102c3575f1960209190910360031b1b16919050565b60805160a05160c05160e0516101005161012051610140516116246104785f395f610d7801525f610d4601525f61104101525f61101901525f610f7401525f610f9e01525f610fc801526116245ff3fe608060405234801561000f575f5ffd5b50600436106100cb575f3560e01c80637249fbb6116100885780638da5cb5b116100635780638da5cb5b14610249578063c92ee04314610259578063dbbd1b791461026c578063f2fde38b1461027f575f5ffd5b80637249fbb6146101fc5780637ecebe001461020f57806384b0196e1461022e575f5ffd5b80630d1cfcae146100cf57806328342ecf146100ff5780632d83549c1461011457806333ae2bc7146101ac57806351ce4caa146101e1578063715018a6146101f4575b5f5ffd5b6005546100e2906001600160a01b031681565b6040516001600160a01b0390911681526020015b60405180910390f35b61011261010d36600461134a565b610292565b005b61016c61012236600461136a565b600360208190525f9182526040909120805460018201546002830154938301546004909301546001600160a01b039283169491831693919092169160ff8082169161010090041686565b604080516001600160a01b0397881681529587166020870152939095169284019290925260608301521515608082015290151560a082015260c0016100f6565b6101d37fa8a506fd54c8000f7a15b58f4c547933557b89ea5acbe326c39d943c1d01c85381565b6040519081526020016100f6565b6101126101ef366004611381565b6102bc565b6101126103d4565b61011261020a36600461136a565b6103e7565b6101d361021d36600461134a565b60046020525f908152604090205481565b61023661058b565b6040516100f697969594939291906113f0565b5f546001600160a01b03166100e2565b61011261026736600461136a565b6105cd565b61011261027a366004611486565b610758565b61011261028d36600461134a565b610a1b565b61029a610a55565b600580546001600160a01b0319166001600160a01b0392909216919091179055565b6102c4610a81565b6005546001600160a01b0316156103ab576005546040516314f8718f60e11b81523360048201819052916001600160a01b0316906329f0e31e90602401602060405180830381865afa15801561031c573d5f5f3e3d5ffd5b505050506040513d601f19601f82011682018060405250810190610340919061153f565b6103a95760405162461bcd60e51b815260206004820152602f60248201527f4165676973457363726f773a206d73672e73656e646572206973206e6f74206160448201526e081d995c9a599a5959081859d95b9d608a1b60648201526084015b60405180910390fd5b505b6103b88433858585610a9c565b6103ce60015f5160206115cf5f395f51905f5255565b50505050565b6103dc610a55565b6103e55f610cb6565b565b6103ef610a55565b6103f7610a81565b5f8181526003602081905260409091209081015461044f5760405162461bcd60e51b8152602060048201526015602482015274115cd8dc9bddc8191bd95cc81b9bdd08195e1a5cdd605a1b60448201526064016103a0565b600481015460ff16156104975760405162461bcd60e51b815260206004820152601060248201526f105b1c9958591e481c995b19585cd95960821b60448201526064016103a0565b6004810154610100900460ff16156104e45760405162461bcd60e51b815260206004820152601060248201526f105b1c9958591e481c99599d5b99195960821b60448201526064016103a0565b60048101805461ff001916610100179055805460038201546002830154610519926001600160a01b0391821692911690610d05565b805460028201546003830154604080516001600160a01b0393841681526020810192909252919092169184917f45a5a6e120edc4aca2e5b955be3e6da488c7006a11751d2d27ef8ac80a8282d791015b60405180910390a35061058860015f5160206115cf5f395f51905f5255565b50565b5f6060805f5f5f606061059c610d3f565b6105a4610d71565b604080515f80825260208201909252600f60f81b9b939a50919850469750309650945092509050565b6105d5610a55565b6105dd610a81565b5f818152600360208190526040909120908101546106355760405162461bcd60e51b8152602060048201526015602482015274115cd8dc9bddc8191bd95cc81b9bdd08195e1a5cdd605a1b60448201526064016103a0565b600481015460ff161561067d5760405162461bcd60e51b815260206004820152601060248201526f105b1c9958591e481c995b19585cd95960821b60448201526064016103a0565b6004810154610100900460ff16156106ca5760405162461bcd60e51b815260206004820152601060248201526f105b1c9958591e481c99599d5b99195960821b60448201526064016103a0565b60048101805460ff1916600190811790915581015460038201546002830154610701926001600160a01b0391821692911690610d05565b600181015460028201546003830154604080516001600160a01b0393841681526020810192909252919092169184917f3c0e0615bb4dc74b6633be904c194b2e62c56c6c6b441d2f0cd093a16280e3909101610569565b610760610a81565b824211156107b05760405162461bcd60e51b815260206004820152601e60248201527f4165676973457363726f773a205369676e61747572652065787069726564000060448201526064016103a0565b6005546001600160a01b03161561088d576005546040516314f8718f60e11b81526001600160a01b03898116600483018190529216906329f0e31e90602401602060405180830381865afa15801561080a573d5f5f3e3d5ffd5b505050506040513d601f19601f8201168201806040525081019061082e919061153f565b61088b5760405162461bcd60e51b815260206004820152602860248201527f4165676973457363726f773a204167656e74206973206e6f742068756d616e2d6044820152671d995c9a599a595960c21b60648201526084016103a0565b505b6001600160a01b038781165f9081526004602090815260408083205481517fa8a506fd54c8000f7a15b58f4c547933557b89ea5acbe326c39d943c1d01c853818501528083018e90528b86166060820152948a16608086015260a0850189905260c085015260e080850188905281518086039091018152610100909401905282519201919091209061091e82610d9e565b90505f6109608286868080601f0160208091040260200160405190810160405280939291908181526020018383808284375f92019190915250610dd092505050565b9050896001600160a01b0316816001600160a01b0316146109c35760405162461bcd60e51b815260206004820152601e60248201527f4165676973457363726f773a20496e76616c6964207369676e6174757265000060448201526064016103a0565b6001600160a01b038a165f9081526004602052604081208054916109e68361155e565b91905055506109f88b8b8b8b8b610a9c565b505050610a1160015f5160206115cf5f395f51905f5255565b5050505050505050565b610a23610a55565b6001600160a01b038116610a4c57604051631e4fbdf760e01b81525f60048201526024016103a0565b61058881610cb6565b5f546001600160a01b031633146103e55760405163118cdaa760e01b81523360048201526024016103a0565b610a89610df8565b60025f5160206115cf5f395f51905f5255565b5f858152600360205260409020546001600160a01b031615610af85760405162461bcd60e51b8152602060048201526015602482015274457363726f7720616c72656164792065786973747360581b60448201526064016103a0565b5f8111610b475760405162461bcd60e51b815260206004820181905260248201527f416d6f756e74206d7573742062652067726561746572207468616e207a65726f60448201526064016103a0565b6001600160a01b038316610b955760405162461bcd60e51b8152602060048201526015602482015274496e76616c696420746f6b656e206164647265737360581b60448201526064016103a0565b6040805160c0810182526001600160a01b0380871682528481166020808401918252878316848601818152606086018881525f6080880181815260a089018281528f835260039687905299909120975188549088166001600160a01b03199182161789559551600189018054918916918816919091179055915160028801805491909716951694909417909455915190840155905160049092018054935115156101000261ff00199315159390931661ffff199094169390931791909117909155610c6290333084610e27565b604080516001600160a01b03858116825260208201849052808516929087169188917f6e4833949b09e387d4b88960991110c27d403ac0c046a434068464dd7c377062910160405180910390a45050505050565b5f80546001600160a01b038381166001600160a01b0319831681178455604051919092169283917f8be0079c531659141344cd1fd0a4f28419497f9722a3daafe3b4186f6b6457e09190a35050565b610d128383836001610e5d565b610d3a57604051635274afe760e01b81526001600160a01b03841660048201526024016103a0565b505050565b6060610d6c7f00000000000000000000000000000000000000000000000000000000000000006001610ebf565b905090565b6060610d6c7f00000000000000000000000000000000000000000000000000000000000000006002610ebf565b5f610dca610daa610f68565b8360405161190160f01b8152600281019290925260228201526042902090565b92915050565b5f5f5f5f610dde8686611091565b925092509250610dee82826110da565b5090949350505050565b5f5160206115cf5f395f51905f52546002036103e557604051633ee5aeb560e01b815260040160405180910390fd5b610e35848484846001611196565b6103ce57604051635274afe760e01b81526001600160a01b03851660048201526024016103a0565b60405163a9059cbb60e01b5f8181526001600160a01b038616600452602485905291602083604481808b5af1925060015f51148316610eb3578383151615610ea7573d5f823e3d81fd5b5f873b113d1516831692505b60405250949350505050565b606060ff8314610ed957610ed283611203565b9050610dca565b818054610ee590611582565b80601f0160208091040260200160405190810160405280929190818152602001828054610f1190611582565b8015610f5c5780601f10610f3357610100808354040283529160200191610f5c565b820191905f5260205f20905b815481529060010190602001808311610f3f57829003601f168201915b50505050509050610dca565b5f306001600160a01b037f000000000000000000000000000000000000000000000000000000000000000016148015610fc057507f000000000000000000000000000000000000000000000000000000000000000046145b15610fea57507f000000000000000000000000000000000000000000000000000000000000000090565b610d6c604080517f8b73c3c69bb8fe3d512ecc4cf759cc79239f7b179b0ffacaa9a75d522b39400f60208201527f0000000000000000000000000000000000000000000000000000000000000000918101919091527f000000000000000000000000000000000000000000000000000000000000000060608201524660808201523060a08201525f9060c00160405160208183030381529060405280519060200120905090565b5f5f5f83516041036110c8576020840151604085015160608601515f1a6110ba88828585611240565b9550955095505050506110d3565b505081515f91506002905b9250925092565b5f8260038111156110ed576110ed6115ba565b036110f6575050565b600182600381111561110a5761110a6115ba565b036111285760405163f645eedf60e01b815260040160405180910390fd5b600282600381111561113c5761113c6115ba565b0361115d5760405163fce698f760e01b8152600481018290526024016103a0565b6003826003811115611171576111716115ba565b03611192576040516335e2f38360e21b8152600481018290526024016103a0565b5050565b6040516323b872dd60e01b5f8181526001600160a01b038781166004528616602452604485905291602083606481808c5af1925060015f511483166111f25783831516156111e6573d5f823e3d81fd5b5f883b113d1516831692505b604052505f60605295945050505050565b60605f61120f83611308565b6040805160208082528183019092529192505f91906020820181803683375050509182525060208101929092525090565b5f80807f7fffffffffffffffffffffffffffffff5d576e7357a4501ddfe92f46681b20a084111561127957505f915060039050826112fe565b604080515f808252602082018084528a905260ff891692820192909252606081018790526080810186905260019060a0016020604051602081039080840390855afa1580156112ca573d5f5f3e3d5ffd5b5050604051601f1901519150506001600160a01b0381166112f557505f9250600191508290506112fe565b92505f91508190505b9450945094915050565b5f60ff8216601f811115610dca57604051632cd44ac360e21b815260040160405180910390fd5b80356001600160a01b0381168114611345575f5ffd5b919050565b5f6020828403121561135a575f5ffd5b6113638261132f565b9392505050565b5f6020828403121561137a575f5ffd5b5035919050565b5f5f5f5f60808587031215611394575f5ffd5b843593506113a46020860161132f565b92506113b26040860161132f565b9396929550929360600135925050565b5f81518084528060208401602086015e5f602082860101526020601f19601f83011685010191505092915050565b60ff60f81b8816815260e060208201525f61140e60e08301896113c2565b828103604084015261142081896113c2565b606084018890526001600160a01b038716608085015260a0840186905283810360c0850152845180825260208087019350909101905f5b81811015611475578351835260209384019390920191600101611457565b50909b9a5050505050505050505050565b5f5f5f5f5f5f5f5f60e0898b03121561149d575f5ffd5b883597506114ad60208a0161132f565b96506114bb60408a0161132f565b95506114c960608a0161132f565b94506080890135935060a0890135925060c089013567ffffffffffffffff8111156114f2575f5ffd5b8901601f81018b13611502575f5ffd5b803567ffffffffffffffff811115611518575f5ffd5b8b6020828401011115611529575f5ffd5b989b979a50959850939692959194602001935050565b5f6020828403121561154f575f5ffd5b81518015158114611363575f5ffd5b5f6001820161157b57634e487b7160e01b5f52601160045260245ffd5b5060010190565b600181811c9082168061159657607f821691505b6020821081036115b457634e487b7160e01b5f52602260045260245ffd5b50919050565b634e487b7160e01b5f52602160045260245ffdfe9b779b17422d0df92223018b32b4d1fa46e071723d6817e2486d003becc55f00a2646970667358221220529c9c53933ee5402ead02bdb51805565736985ac57eff9666c0fd268ec4b45264736f6c634300081c0033",
  "linkReferences": {},
  "deployedLinkReferences": {}
}