{
  "_format": "hh-sol-artifact-1",
  "contractName": "AegisAgentRegistry",
  "sourceName": "contracts/AegisAgentRegistry.sol",
  "abi": [
    {
      "inputs": [
        {
          "internalType": "address",
          "name": "_selfVerifier",
          "type": "address"
        }
      ],
      "stateMutability": "nonpayable",
      "type": "constructor"
    },
    {
      "inputs": [
        {
          "internalType": "address",
          "name": "sender",
          "type": "address"
        },
        {
          "internalType": "uint256",
          "name": "tokenId",
          "type": "uint256"
        },
        {
          "internalType": "address",
          "name": "owner",
          "type": "address"
        }
      ],
      "name": "ERC721IncorrectOwner",
      "type": "error"
    },
    {
      "inputs": [
        {
          "internalType": "address",
          "name": "operator",
          "type": "address"
        },
        {
          "internalType": "uint256",
          "name": "tokenId",
          "type": "uint256"
        }
      ],
      "name": "ERC721InsufficientApproval",
      "type": "error"
    },
    {
      "inputs": [
        {
          "internalType": "address",
          "name": "approver",
          "type": "address"
        }
      ],
      "name": "ERC721InvalidApprover",
      "type": "error"
    },
    {
      "inputs": [
        {
          "internalType": "address",
          "name": "operator",
          "type": "address"
        }
      ],
      "name": "ERC721InvalidOperator",
      "type": "error"
    },
    {
      "inputs": [
        {
          "internalType": "address",
          "name": "owner",
          "type": "address"
        }
      ],
      "name": "ERC721InvalidOwner",
      "type": "error"
    },
    {
      "inputs": [
        {
          "internalType": "address",
          "name": "receiver",
          "type": "address"
        }
      ],
      "name": "ERC721InvalidReceiver",
      "type": "error"
    },
    {
      "inputs": [
        {
          "internalType": "address",
          "name": "sender",
          "type": "address"
        }
      ],
      "name": "ERC721InvalidSender",
      "type": "error"
    },
    {
      "inputs": [
        {
          "internalType": "uint256",
          "name": "tokenId",
          "type": "uint256"
        }
      ],
      "name": "ERC721NonexistentToken",
      "type": "error"
    },
    {
      "inputs": [
        {
          "internalType": "address",
          "name": "owner",
          "type": "address"
        }
      ],
      "name": "OwnableInvalidOwner",
      "type": "error"
    },
    {
      "inputs": [
        {
          "internalType": "address",
          "name": "account",
          "type": "address"
        }
      ],
      "name": "OwnableUnauthorizedAccount",
      "type": "error"
    },
    {
      "anonymous": false,
      "inputs": [
        {
          "indexed": true,
          "internalType": "uint256",
          "name": "agentId",
          "type": "uint256"
        },
        {
          "indexed": false,
          "internalType": "string",
          "name": "agentURI",
          "type": "string"
        }
      ],
      "name": "AgentRegistered",
      "type": "event"
    },
    {
      "anonymous": false,
      "inputs": [
        {
          "indexed": true,
          "internalType": "address",
          "name": "owner",
          "type": "address"
        },
        {
          "indexed": true,
          "internalType": "address",
          "name": "approved",
          "type": "address"
        },
        {
          "indexed": true,
          "internalType": "uint256",
          "name": "tokenId",
          "type": "uint256"
        }
      ],
      "name": "Approval",
      "type": "event"
    },
    {
      "anonymous": false,
      "inputs": [
        {
          "indexed": true,
          "internalType": "address",
          "name": "owner",
          "type": "address"
        },
        {
          "indexed": true,
          "internalType": "address",
          "name": "operator",
          "type": "address"
        },
        {
          "indexed": false,
          "internalType": "bool",
          "name": "approved",
          "type": "bool"
        }
      ],
      "name": "ApprovalForAll",
      "type": "event"
    },
    {
      "anonymous": false,
      "inputs": [
        {
          "indexed": false,
          "internalType": "uint256",
          "name": "_fromTokenId",
          "type": "uint256"
        },
        {
          "indexed": false,
          "internalType": "uint256",
          "name": "_toTokenId",
          "type": "uint256"
        }
      ],
      "name": "BatchMetadataUpdate",
      "type": "event"
    },
    {
      "anonymous": false,
      "inputs": [
        {
          "indexed": false,
          "internalType": "uint256",
          "name": "_tokenId",
          "type": "uint256"
        }
      ],
      "name": "MetadataUpdate",
      "type": "event"
    },
    {
      "anonymous": false,
      "inputs": [
        {
          "indexed": true,
          "internalType": "address",
          "name": "previousOwner",
          "type": "address"
        },
        {
          "indexed": true,
          "internalType": "address",
          "name": "newOwner",
          "type": "address"
        }
      ],
      "name": "OwnershipTransferred",
      "type": "event"
    },
    {
      "anonymous": false,
      "inputs": [
        {
          "indexed": true,
          "internalType": "address",
          "name": "from",
          "type": "address"
        },
        {
          "indexed": true,
          "internalType": "address",
          "name": "to",
          "type": "address"
        },
        {
          "indexed": true,
          "internalType": "uint256",
          "name": "tokenId",
          "type": "uint256"
        }
      ],
      "name": "Transfer",
      "type": "event"
    },
    {
      "inputs": [
        {
          "internalType": "uint256",
          "name": "agentId",
          "type": "uint256"
        }
      ],
      "name": "agentURI",
      "outputs": [
        {
          "internalType": "string",
          "name": "",
          "type": "string"
        }
      ],
      "stateMutability": "view",
      "type": "function"
    },
    {
      "inputs": [
        {
          "internalType": "address",
          "name": "to",
          "type": "address"
        },
        {
          "internalType": "uint256",
          "name": "tokenId",
          "type": "uint256"
        }
      ],
      "name": "approve",
      "outputs": [],
      "stateMutability": "nonpayable",
      "type": "function"
    },
    {
      "inputs": [
        {
          "internalType": "address",
          "name": "owner",
          "type": "address"
        }
      ],
      "name": "balanceOf",
      "outputs": [
        {
          "internalType": "uint256",
          "name": "",
          "type": "uint256"
        }
      ],
      "stateMutability": "view",
      "type": "function"
    },
    {
      "inputs": [
        {
          "internalType": "bytes32",
          "name": "agentKey",
          "type": "bytes32"
        }
      ],
      "name": "getAgentId",
      "outputs": [
        {
          "internalType": "uint256",
          "name": "",
          "type": "uint256"
        }
      ],
      "stateMutability": "view",
      "type": "function"
    },
    {
      "inputs": [
        {
          "internalType": "uint256",
          "name": "agentId",
          "type": "uint256"
        }
      ],
      "name": "getAgentPrompt",
      "outputs": [
        {
          "internalType": "string",
          "name": "",
          "type": "string"
        }
      ],
      "stateMutability": "view",
      "type": "function"
    },
    {
      "inputs": [
        {
          "internalType": "uint256",
          "name": "tokenId",
          "type": "uint256"
        }
      ],
      "name": "getApproved",
      "outputs": [
        {
          "internalType": "address",
          "name": "",
          "type": "address"
        }
      ],
      "stateMutability": "view",
      "type": "function"
    },
    {
      "inputs": [
        {
          "internalType": "address",
          "name": "owner",
          "type": "address"
        },
        {
          "internalType": "address",
          "name": "operator",
          "type": "address"
        }
      ],
      "name": "isApprovedForAll",
      "outputs": [
        {
          "internalType": "bool",
          "name": "",
          "type": "bool"
        }
      ],
      "stateMutability": "view",
      "type": "function"
    },
    {
      "inputs": [
        {
          "internalType": "bytes32",
          "name": "agentKey",
          "type": "bytes32"
        }
      ],
      "name": "isVerifiedAgent",
      "outputs": [
        {
          "internalType": "bool",
          "name": "",
          "type": "bool"
        }
      ],
      "stateMutability": "view",
      "type": "function"
    },
    {
      "inputs": [],
      "name": "name",
      "outputs": [
        {
          "internalType": "string",
          "name": "",
          "type": "string"
        }
      ],
      "stateMutability": "view",
      "type": "function"
    },
    {
      "inputs": [],
      "name": "owner",
      "outputs": [
        {
          "internalType": "address",
          "name": "",
          "type": "address"
        }
      ],
      "stateMutability": "view",
      "type": "function"
    },
    {
      "inputs": [
        {
          "internalType": "uint256",
          "name": "tokenId",
          "type": "uint256"
        }
      ],
      "name": "ownerOf",
      "outputs": [
        {
          "internalType": "address",
          "name": "",
          "type": "address"
        }
      ],
      "stateMutability": "view",
      "type": "function"
    },
    {
      "inputs": [
        {
          "internalType": "address",
          "name": "to",
          "type": "address"
        },
        {
          "internalType": "string",
          "name": "uri",
          "type": "string"
        },
        {
          "internalType": "string",
          "name": "promptCID",
          "type": "string"
        }
      ],
      "name": "registerAgent",
      "outputs": [
        {
          "internalType": "uint256",
          "name": "",
          "type": "uint256"
        }
      ],
      "stateMutability": "nonpayable",
      "type": "function"
    },
    {
      "inputs": [],
      "name": "renounceOwnership",
      "outputs": [],
      "stateMutability": "nonpayable",
      "type": "function"
    },
    {
      "inputs": [
        {
          "internalType": "address",
          "name": "from",
          "type": "address"
        },
        {
          "internalType": "address",
          "name": "to",
          "type": "address"
        },
        {
          "internalType": "uint256",
          "name": "tokenId",
          "type": "uint256"
        }
      ],
      "name": "safeTransferFrom",
      "outputs": [],
      "stateMutability": "nonpayable",
      "type": "function"
    },
    {
      "inputs": [
        {
          "internalType": "address",
          "name": "from",
          "type": "address"
        },
        {
          "internalType": "address",
          "name": "to",
          "type": "address"
        },
        {
          "internalType": "uint256",
          "name": "tokenId",
          "type": "uint256"
        },
        {
          "internalType": "bytes",
          "name": "data",
          "type": "bytes"
        }
      ],
      "name": "safeTransferFrom",
      "outputs": [],
      "stateMutability": "nonpayable",
      "type": "function"
    },
    {
      "inputs": [],
      "name": "selfVerifier",
      "outputs": [
        {
          "internalType": "address",
          "name": "",
          "type": "address"
        }
      ],
      "stateMutability": "view",
      "type": "function"
    },
    {
      "inputs": [
        {
          "internalType": "address",
          "name": "operator",
          "type": "address"
        },
        {
          "internalType": "bool",
          "name": "approved",
          "type": "bool"
        }
      ],
      "name": "setApprovalForAll",
      "outputs": [],
      "stateMutability": "nonpayable",
      "type": "function"
    },
    {
      "inputs": [
        {
          "internalType": "address",
          "name": "_selfVerifier",
          "type": "address"
        }
      ],
      "name": "setSelfVerifier",
      "outputs": [],
      "stateMutability": "nonpayable",
      "type": "function"
    },
    {
      "inputs": [
        {
          "internalType": "bytes4",
          "name": "interfaceId",
          "type": "bytes4"
        }
      ],
      "name": "supportsInterface",
      "outputs": [
        {
          "internalType": "bool",
          "name": "",
          "type": "bool"
        }
      ],
      "stateMutability": "view",
      "type": "function"
    },
    {
      "inputs": [],
      "name": "symbol",
      "outputs": [
        {
          "internalType": "string",
          "name": "",
          "type": "string"
        }
      ],
      "stateMutability": "view",
      "type": "function"
    },
    {
      "inputs": [
        {
          "internalType": "uint256",
          "name": "tokenId",
          "type": "uint256"
        }
      ],
      "name": "tokenURI",
      "outputs": [
        {
          "internalType": "string",
          "name": "",
          "type": "string"
        }
      ],
      "stateMutability": "view",
      "type": "function"
    },
    {
      "inputs": [
        {
          "internalType": "address",
          "name": "from",
          "type": "address"
        },
        {
          "internalType": "address",
          "name": "to",
          "type": "address"
        },
        {
          "internalType": "uint256",
          "name": "tokenId",
          "type": "uint256"
        }
      ],
      "name": "transferFrom",
      "outputs": [],
      "stateMutability": "nonpayable",
      "type": "function"
    },
    {
      "inputs": [
        {
          "internalType": "address",
          "name": "newOwner",
          "type": "address"
        }
      ],
      "name": "transferOwnership",
      "outputs": [],
      "stateMutability": "nonpayable",
      "type": "function"
    }
  ],
  "bytecode": "0x608060405234801561000f575f5ffd5b50604051611f17380380611f1783398101604081905261002e9161014c565b336040518060400160405280601c81526020017f416567697320436f6e666964656e7469616c20436f6e636965726765000000008152506040518060400160405280600381526020016241434360e81b815250815f908161008f9190610211565b50600161009c8282610211565b5050506001600160a01b0381166100cc57604051631e4fbdf760e01b81525f600482015260240160405180910390fd5b6100d5816100fb565b50600b80546001600160a01b0319166001600160a01b03929092169190911790556102cb565b600780546001600160a01b038381166001600160a01b0319831681179093556040519116919082907f8be0079c531659141344cd1fd0a4f28419497f9722a3daafe3b4186f6b6457e0905f90a35050565b5f6020828403121561015c575f5ffd5b81516001600160a01b0381168114610172575f5ffd5b9392505050565b634e487b7160e01b5f52604160045260245ffd5b600181811c908216806101a157607f821691505b6020821081036101bf57634e487b7160e01b5f52602260045260245ffd5b50919050565b601f82111561020c57805f5260205f20601f840160051c810160208510156101ea5750805b601f840160051c820191505b81811015610209575f81556001016101f6565b50505b505050565b81516001600160401b0381111561022a5761022a610179565b61023e81610238845461018d565b846101c5565b6020601f821160018114610270575f83156102595750848201515b5f19600385901b1c1916600184901b178455610209565b5f84815260208120601f198516915b8281101561029f578785015182556020948501946001909201910161027f565b50848210156102bc57868401515f19600387901b60f8161c191681555b50505050600190811b01905550565b611c3f806102d85f395ff3fe608060405234801561000f575f5ffd5b5060043610610148575f3560e01c8063715018a6116100bf578063a22cb46511610079578063a22cb465146102b6578063b88d4fde146102c9578063bc936c52146102dc578063c87b56dd146102ef578063e985e9c514610302578063f2fde38b14610315575f5ffd5b8063715018a61461025c5780637216fe481461026457806378396cb3146102775780637a646f6c1461028a5780638da5cb5b1461029d57806395d89b41146102ae575f5ffd5b806329f0e31e1161011057806329f0e31e146101dc57806342842e0e146101ef5780635bbc976c146102025780635d530a62146102155780636352211e1461022857806370a082311461023b575f5ffd5b806301ffc9a71461014c57806306fdde0314610174578063081812fc14610189578063095ea7b3146101b457806323b872dd146101c9575b5f5ffd5b61015f61015a3660046113cf565b610328565b60405190151581526020015b60405180910390f35b61017c61036d565b60405161016b9190611418565b61019c61019736600461142a565b6103fc565b6040516001600160a01b03909116815260200161016b565b6101c76101c236600461145c565b610423565b005b6101c76101d7366004611484565b610432565b61015f6101ea36600461142a565b6104c0565b6101c76101fd366004611484565b6104d4565b600b5461019c906001600160a01b031681565b61017c61022336600461142a565b6104f3565b61019c61023636600461142a565b61059a565b61024e6102493660046114be565b6105a4565b60405190815260200161016b565b6101c76105e9565b61024e6102723660046115c3565b6105fc565b61017c61028536600461142a565b6108b3565b6101c76102983660046114be565b6108be565b6007546001600160a01b031661019c565b61017c6108e8565b6101c76102c4366004611642565b6108f7565b6101c76102d7366004611677565b610902565b61024e6102ea36600461142a565b61091a565b61017c6102fd36600461142a565b610990565b61015f6103103660046116ed565b61099b565b6101c76103233660046114be565b6109c8565b5f6001600160e01b031982166378396cb360e01b148061035857506001600160e01b03198216636f1389ef60e11b145b80610367575061036782610a05565b92915050565b60605f805461037b9061171e565b80601f01602080910402602001604051908101604052809291908181526020018280546103a79061171e565b80156103f25780601f106103c9576101008083540402835291602001916103f2565b820191905f5260205f20905b8154815290600101906020018083116103d557829003601f168201915b5050505050905090565b5f61040682610a29565b505f828152600460205260409020546001600160a01b0316610367565b61042e828233610a61565b5050565b6001600160a01b03821661046057604051633250574960e11b81525f60048201526024015b60405180910390fd5b5f61046c838333610a6e565b9050836001600160a01b0316816001600160a01b0316146104ba576040516364283d7b60e01b81526001600160a01b0380861660048301526024820184905282166044820152606401610457565b50505050565b5f81816104cc826105a4565b119392505050565b6104ee83838360405180602001604052805f815250610902565b505050565b60606104fe82610a29565b505f82815260096020526040902080546105179061171e565b80601f01602080910402602001604051908101604052809291908181526020018280546105439061171e565b801561058e5780601f106105655761010080835404028352916020019161058e565b820191905f5260205f20905b81548152906001019060200180831161057157829003601f168201915b50505050509050919050565b5f61036782610a29565b5f6001600160a01b0382166105ce576040516322718ad960e21b81525f6004820152602401610457565b506001600160a01b03165f9081526003602052604090205490565b6105f1610af7565b6105fa5f610b24565b565b5f610605610af7565b600b546001600160a01b03161561083157600b546040516314f8718f60e11b81526001600160a01b038681166004830181905292169081906329f0e31e90602401602060405180830381865afa158015610661573d5f5f3e3d5ffd5b505050506040513d601f19601f820116820180604052508101906106859190611756565b6106ef5760405162461bcd60e51b815260206004820152603560248201527f41656769733a204f776e6572206d75737420626520612076657269666965642060448201527468756d616e202853656c662050726f746f636f6c2960581b6064820152608401610457565b604051635e49b62960e11b8152600481018390525f906001600160a01b0383169063bc936c5290602401602060405180830381865afa158015610734573d5f5f3e3d5ffd5b505050506040513d601f19601f820116820180604052508101906107589190611771565b60405163364c7e6160e01b8152600481018290529091505f906001600160a01b0384169063364c7e61906024015f60405180830381865afa15801561079f573d5f5f3e3d5ffd5b505050506040513d5f823e601f3d908101601f191682016040526107c691908101906118ea565b610100810151519091501561082c5760405162461bcd60e51b815260206004820152602660248201527f41656769733a204f776e6572206973206f6e204f4641432073616e6374696f6e6044820152651cc81b1a5cdd60d21b6064820152608401610457565b505050505b600880545f918261084183611a6f565b9190505590506108518582610b75565b61085b8185610b8e565b5f8181526009602052604090206108728482611ad7565b50807f68d1b0e7d2b0610b63e2bd980885f301425b304a659365e46e3acd840285bb62856040516108a39190611418565b60405180910390a2949350505050565b606061036782610990565b6108c6610af7565b600b80546001600160a01b0319166001600160a01b0392909216919091179055565b60606001805461037b9061171e565b61042e338383610bdd565b61090d848484610432565b6104ba3385858585610ca4565b5f8181610926826105a4565b116109735760405162461bcd60e51b815260206004820152601b60248201527f41656769733a204e6f742061207665726966696564206167656e7400000000006044820152606401610457565b6001600160a01b03165f908152600a602052604090205492915050565b606061036782610dcc565b6001600160a01b039182165f90815260056020908152604080832093909416825291909152205460ff1690565b6109d0610af7565b6001600160a01b0381166109f957604051631e4fbdf760e01b81525f6004820152602401610457565b610a0281610b24565b50565b5f6001600160e01b03198216632483248360e11b1480610367575061036782610e45565b5f818152600260205260408120546001600160a01b03168061036757604051637e27328960e01b815260048101849052602401610457565b6104ee8383836001610e94565b5f5f610a7b858585610f98565b90506001600160a01b03851615610aa7576001600160a01b0385165f908152600a602052604090208490555b6001600160a01b03811615801590610ad15750846001600160a01b0316816001600160a01b031614155b15610aef576001600160a01b0381165f908152600a60205260408120555b949350505050565b6007546001600160a01b031633146105fa5760405163118cdaa760e01b8152336004820152602401610457565b600780546001600160a01b038381166001600160a01b0319831681179093556040519116919082907f8be0079c531659141344cd1fd0a4f28419497f9722a3daafe3b4186f6b6457e0905f90a35050565b61042e828260405180602001604052805f81525061108a565b5f828152600660205260409020610ba58282611ad7565b506040518281527ff8e1a15aba9398e019f0b49df1a4fde98ee17ae345cb5f6b5e2c27f5033e8ce79060200160405180910390a15050565b6001600160a01b038316610c065760405163a9fbf51f60e01b81525f6004820152602401610457565b6001600160a01b038216610c3857604051630b61174360e31b81526001600160a01b0383166004820152602401610457565b6001600160a01b038381165f81815260056020908152604080832094871680845294825291829020805460ff191686151590811790915591519182527f17307eab39ab6107e8899845ad3d59bd9653f200f220920489ca2b5937696c31910160405180910390a3505050565b6001600160a01b0383163b15610dc557604051630a85bd0160e11b81526001600160a01b0384169063150b7a0290610ce6908890889087908790600401611b91565b6020604051808303815f875af1925050508015610d20575060408051601f3d908101601f19168201909252610d1d91810190611bc3565b60015b610d87573d808015610d4d576040519150601f19603f3d011682016040523d82523d5f602084013e610d52565b606091505b5080515f03610d7f57604051633250574960e11b81526001600160a01b0385166004820152602401610457565b805160208201fd5b6001600160e01b03198116630a85bd0160e11b14610dc357604051633250574960e11b81526001600160a01b0385166004820152602401610457565b505b5050505050565b6060610dd782610a29565b505f610ded60408051602081019091525f815290565b90505f610df9846110a1565b905081515f03610e0a579392505050565b805115610e3c578181604051602001610e24929190611bf5565b60405160208183030381529060405292505050919050565b610aef846110bd565b5f6001600160e01b031982166380ac58cd60e01b1480610e7557506001600160e01b03198216635b5e139f60e01b145b8061036757506301ffc9a760e01b6001600160e01b0319831614610367565b8080610ea857506001600160a01b03821615155b15610f69575f610eb784610a29565b90506001600160a01b03831615801590610ee35750826001600160a01b0316816001600160a01b031614155b8015610ef65750610ef4818461099b565b155b15610f1f5760405163a9fbf51f60e01b81526001600160a01b0384166004820152602401610457565b8115610f675783856001600160a01b0316826001600160a01b03167f8c5be1e5ebec7d5bd14f71427d1e84f3dd0314c0f7b2291e5b200ac8c7c3b92560405160405180910390a45b505b50505f90815260046020526040902080546001600160a01b0319166001600160a01b0392909216919091179055565b5f828152600260205260408120546001600160a01b0390811690831615610fc457610fc481848661112e565b6001600160a01b03811615610ffe57610fdf5f855f5f610e94565b6001600160a01b0381165f90815260036020526040902080545f190190555b6001600160a01b0385161561102c576001600160a01b0385165f908152600360205260409020805460010190555b5f8481526002602052604080822080546001600160a01b0319166001600160a01b0389811691821790925591518793918516917fddf252ad1be2c89b69c2b068fc378daa952ba7f163c4a11628f55a4df523b3ef91a4949350505050565b6110948383611192565b6104ee335f858585610ca4565b5f8181526006602052604090208054606091906105179061171e565b60606110c882610a29565b505f6110de60408051602081019091525f815290565b90505f8151116110fc5760405180602001604052805f815250611127565b80611106846111f3565b604051602001611117929190611bf5565b6040516020818303038152906040525b9392505050565b611139838383611282565b6104ee576001600160a01b03831661116757604051637e27328960e01b815260048101829052602401610457565b60405163177e802f60e01b81526001600160a01b038316600482015260248101829052604401610457565b6001600160a01b0382166111bb57604051633250574960e11b81525f6004820152602401610457565b5f6111c783835f610a6e565b90506001600160a01b038116156104ee576040516339e3563760e11b81525f6004820152602401610457565b60605f6111ff836112e3565b60010190505f816001600160401b0381111561121d5761121d6114d7565b6040519080825280601f01601f191660200182016040528015611247576020820181803683370190505b5090508181016020015b5f19016f181899199a1a9b1b9c1cb0b131b232b360811b600a86061a8153600a850494508461125157509392505050565b5f6001600160a01b03831615801590610aef5750826001600160a01b0316846001600160a01b031614806112bb57506112bb848461099b565b80610aef5750505f908152600460205260409020546001600160a01b03908116911614919050565b5f8072184f03e93ff9f4daa797ed6e38ed64bf6a1f0160401b83106113215772184f03e93ff9f4daa797ed6e38ed64bf6a1f0160401b830492506040015b6d04ee2d6d415b85acef8100000000831061134d576d04ee2d6d415b85acef8100000000830492506020015b662386f26fc10000831061136b57662386f26fc10000830492506010015b6305f5e1008310611383576305f5e100830492506008015b612710831061139757612710830492506004015b606483106113a9576064830492506002015b600a83106103675760010192915050565b6001600160e01b031981168114610a02575f5ffd5b5f602082840312156113df575f5ffd5b8135611127816113ba565b5f81518084528060208401602086015e5f602082860101526020601f19601f83011685010191505092915050565b602081525f61112760208301846113ea565b5f6020828403121561143a575f5ffd5b5035919050565b80356001600160a01b0381168114611457575f5ffd5b919050565b5f5f6040838503121561146d575f5ffd5b61147683611441565b946020939093013593505050565b5f5f5f60608486031215611496575f5ffd5b61149f84611441565b92506114ad60208501611441565b929592945050506040919091013590565b5f602082840312156114ce575f5ffd5b61112782611441565b634e487b7160e01b5f52604160045260245ffd5b60405161012081016001600160401b038111828210171561150e5761150e6114d7565b60405290565b604051601f8201601f191681016001600160401b038111828210171561153c5761153c6114d7565b604052919050565b5f6001600160401b0382111561155c5761155c6114d7565b50601f01601f191660200190565b5f61157c61157784611544565b611514565b905082815283838301111561158f575f5ffd5b828260208301375f602084830101529392505050565b5f82601f8301126115b4575f5ffd5b6111278383356020850161156a565b5f5f5f606084860312156115d5575f5ffd5b6115de84611441565b925060208401356001600160401b038111156115f8575f5ffd5b611604868287016115a5565b92505060408401356001600160401b0381111561161f575f5ffd5b61162b868287016115a5565b9150509250925092565b8015158114610a02575f5ffd5b5f5f60408385031215611653575f5ffd5b61165c83611441565b9150602083013561166c81611635565b809150509250929050565b5f5f5f5f6080858703121561168a575f5ffd5b61169385611441565b93506116a160208601611441565b92506040850135915060608501356001600160401b038111156116c2575f5ffd5b8501601f810187136116d2575f5ffd5b6116e18782356020840161156a565b91505092959194509250565b5f5f604083850312156116fe575f5ffd5b61170783611441565b915061171560208401611441565b90509250929050565b600181811c9082168061173257607f821691505b60208210810361175057634e487b7160e01b5f52602260045260245ffd5b50919050565b5f60208284031215611766575f5ffd5b815161112781611635565b5f60208284031215611781575f5ffd5b5051919050565b5f82601f830112611797575f5ffd5b81516117a561157782611544565b8181528460208386010111156117b9575f5ffd5b8160208501602083015e5f918101602001919091529392505050565b5f82601f8301126117e4575f5ffd5b81516001600160401b038111156117fd576117fd6114d7565b8060051b61180d60208201611514565b91825260208185018101929081019086841115611828575f5ffd5b6020860192505b8383101561186d5782516001600160401b0381111561184c575f5ffd5b61185b886020838a0101611788565b8352506020928301929091019061182f565b9695505050505050565b5f82601f830112611886575f5ffd5b604051606081016001600160401b03811182821017156118a8576118a86114d7565b6040528060608401858111156118bc575f5ffd5b845b818110156118df5780516118d181611635565b8352602092830192016118be565b509195945050505050565b5f602082840312156118fa575f5ffd5b81516001600160401b0381111561190f575f5ffd5b82016101608185031215611921575f5ffd5b6119296114eb565b81516001600160401b0381111561193e575f5ffd5b61194a86828501611788565b82525060208201516001600160401b03811115611965575f5ffd5b611971868285016117d5565b60208301525060408201516001600160401b0381111561198f575f5ffd5b61199b86828501611788565b60408301525060608201516001600160401b038111156119b9575f5ffd5b6119c586828501611788565b60608301525060808201516001600160401b038111156119e3575f5ffd5b6119ef86828501611788565b60808301525060a08201516001600160401b03811115611a0d575f5ffd5b611a1986828501611788565b60a08301525060c08201516001600160401b03811115611a37575f5ffd5b611a4386828501611788565b60c08301525060e08281015190820152611a61856101008401611877565b610100820152949350505050565b5f60018201611a8c57634e487b7160e01b5f52601160045260245ffd5b5060010190565b601f8211156104ee57805f5260205f20601f840160051c81016020851015611ab85750805b601f840160051c820191505b81811015610dc5575f8155600101611ac4565b81516001600160401b03811115611af057611af06114d7565b611b0481611afe845461171e565b84611a93565b6020601f821160018114611b36575f8315611b1f5750848201515b5f19600385901b1c1916600184901b178455610dc5565b5f84815260208120601f198516915b82811015611b655787850151825560209485019460019092019101611b45565b5084821015611b8257868401515f19600387901b60f8161c191681555b50505050600190811b01905550565b6001600160a01b03858116825284166020820152604081018390526080606082018190525f9061186d908301846113ea565b5f60208284031215611bd3575f5ffd5b8151611127816113ba565b5f81518060208401855e5f93019283525090919050565b5f610aef611c038386611bde565b84611bde56fea2646970667358221220432ec045153900fd88ab7b2ecee398eeabba6ab5c95de33c1685bf5999f40c8064736f6c634300081c0033",
  "linkReferences": {},
  "deployedLinkReferences": {}
}