{
  "_format": "hh-sol-artifact-1",
  "contractName": "MockSelfAgentRegistry",
  "sourceName": "contracts/MockSelfAgentRegistry.sol",
  "abi": [
    {
      "stateMutability": "nonpayable",
      "type": "fallback"
    },
    {
      "inputs": [
        {
          "internalType": "uint256",
          "name": "",
          "type": "uint256"
        }
      ],
      "name": "getAgentCredentials",
      "outputs": [
        {
          "components": [
            {
              "internalType": "string",
              "name": "issuingState",
              "type": "string"
            },
            {
              "internalType": "string[]",
              "name": "name",
              "type": "string[]"
            },
            {
              "internalType": "string",
              "name": "idNumber",
              "type": "string"
            },
            {
              "internalType": "string",
              "name": "nationality",
              "type": "string"
            },
            {
              "internalType": "string",
              "name": "dateOfBirth",
              "type": "string"
            },
            {
              "internalType": "string",
              "name": "gender",
              "type": "string"
            },
            {
              "internalType": "string",
              "name": "expiryDate",
              "type": "string"
            },
            {
              "internalType": "uint256",
              "name": "olderThan",
              "type": "uint256"
            },
            {
              "internalType": "bool[3]",
              "name": "ofac",
              "type": "bool[3]"
            }
          ],
          "internalType": "struct ISelfAgentRegistry.AgentCredentials",
          "name": "",
          "type": "tuple"
        }
      ],
      "stateMutability": "view",
      "type": "function"
    },
    {
      "inputs": [
        {
          "internalType": "bytes32",
          "name": "agentKey",
          "type": "bytes32"
        }
      ],
      "name": "getAgentId",
      "outputs": [
        {
          "internalType": "uint256",
          "name": "",
          "type": "uint256"
        }
      ],
      "stateMutability": "view",
      "type": "function"
    },
    {
      "inputs": [
        {
          "internalType": "bytes32",
          "name": "agentKey",
          "type": "bytes32"
        }
      ],
      "name": "isAgentVerified",
      "outputs": [
        {
          "internalType": "bool",
          "name": "",
          "type": "bool"
        }
      ],
      "stateMutability": "view",
      "type": "function"
    },
    {
      "inputs": [
        {
          "internalType": "uint256",
          "name": "",
          "type": "uint256"
        }
      ],
      "name": "isProofFresh",
      "outputs": [
        {
          "internalType": "bool",
          "name": "",
          "type": "bool"
        }
      ],
      "stateMutability": "view",
      "type": "function"
    },
    {
      "inputs": [
        {
          "internalType": "bytes32",
          "name": "agentKey",
          "type": "bytes32"
        }
      ],
      "name": "isVerified",
      "outputs": [
        {
          "internalType": "bool",
          "name": "",
          "type": "bool"
        }
      ],
      "stateMutability": "view",
      "type": "function"
    },
    {
      "inputs": [
        {
          "internalType": "bytes32",
          "name": "agentKey",
          "type": "bytes32"
        }
      ],
      "name": "isVerifiedAgent",
      "outputs": [
        {
          "internalType": "bool",
          "name": "",
          "type": "bool"
        }
      ],
      "stateMutability": "view",
      "type": "function"
    },
    {
      "inputs": [
        {
          "internalType": "address",
          "name": "account",
          "type": "address"
        },
        {
          "internalType": "bool",
          "name": "isVerified",
          "type": "bool"
        }
      ],
      "name": "setVerified",
      "outputs": [],
      "stateMutability": "nonpayable",
      "type": "function"
    },
    {
      "inputs": [
        {
          "internalType": "uint256",
          "name": "",
          "type": "uint256"
        },
        {
          "internalType": "bytes",
          "name": "",
          "type": "bytes"
        },
        {
          "internalType": "uint256[]",
          "name": "",
          "type": "uint256[]"
        }
      ],
      "name": "submitProof",
      "outputs": [
        {
          "internalType": "bool",
          "name": "",
          "type": "bool"
        }
      ],
      "stateMutability": "nonpayable",
      "type": "function"
    },
    {
      "inputs": [
        {
          "internalType": "bytes32",
          "name": "",
          "type": "bytes32"
        }
      ],
      "name": "verified",
      "outputs": [
        {
          "internalType": "bool",
          "name": "",
          "type": "bool"
        }
      ],
      "stateMutability": "view",
      "type": "function"
    },
    {
      "stateMutability": "payable",
      "type": "receive"
    }
  ],
  "bytecode": "0x6080604052348015600e575f5ffd5b506107248061001c5f395ff3fe608060405260043610610089575f3560e01c80637d08e2f3116100585780637d08e2f31461014b5780639cf5c6131461016b578063bc936c52146101af578063c181b273146100f1578063c59e43e5146101da57610090565b8063048e5e611461009d57806310a5cdbc146100f157806329f0e31e146100f1578063364c7e611461011f57610090565b3661009057005b34801561009b575f5ffd5b005b3480156100a8575f5ffd5b506100dc6100b7366004610429565b335f908152602081905260409020805460ff1916600190811790915595945050505050565b60405190151581526020015b60405180910390f35b3480156100fc575f5ffd5b506100dc61010b3660046104d1565b5f9081526020819052604090205460ff1690565b34801561012a575f5ffd5b5061013e6101393660046104d1565b610208565b6040516100e8919061059a565b348015610156575f5ffd5b506100dc6101653660046104d1565b50600190565b348015610176575f5ffd5b5061009b610185366004610694565b6001600160a01b03919091165f908152602081905260409020805460ff1916911515919091179055565b3480156101ba575f5ffd5b506101cc6101c93660046104d1565b90565b6040519081526020016100e8565b3480156101e5575f5ffd5b506100dc6101f43660046104d1565b5f6020819052908152604090205460ff1681565b610210610373565b6040805160018082528183019092525f91816020015b60608152602001906001900390816102265790505090506040518060400160405280600e81526020016d2b32b934b334b2b210243ab6b0b760911b815250815f81518110610276576102766106da565b60209081029190910181019190915260408051606080820183525f808352828501819052828401528251610160810184526002610120820181815261555360f01b610140840181905290835282870197909752845180860186526005815264313233343560d81b818801528286015284518086018652908152808601969096529081019490945281518083018352600a80825269313939302d30312d303160b01b8286015260808601919091528251808401845260018152604d60f81b8186015260a08601528251808401909352825269323033302d30312d303160b01b9282019290925260c0830152601260e083015261010082015292915050565b604051806101200160405280606081526020016060815260200160608152602001606081526020016060815260200160608152602001606081526020015f81526020016103be6103c3565b905290565b60405180606001604052806003906020820280368337509192915050565b5f5f83601f8401126103f1575f5ffd5b50813567ffffffffffffffff811115610408575f5ffd5b6020830191508360208260051b8501011115610422575f5ffd5b9250929050565b5f5f5f5f5f6060868803121561043d575f5ffd5b85359450602086013567ffffffffffffffff81111561045a575f5ffd5b8601601f8101881361046a575f5ffd5b803567ffffffffffffffff811115610480575f5ffd5b886020828401011115610491575f5ffd5b60209190910194509250604086013567ffffffffffffffff8111156104b4575f5ffd5b6104c0888289016103e1565b969995985093965092949392505050565b5f602082840312156104e1575f5ffd5b5035919050565b5f81518084528060208401602086015e5f602082860101526020601f19601f83011685010191505092915050565b5f82825180855260208501945060208160051b830101602085015f5b8381101561056457601f1985840301885261054e8383516104e8565b6020988901989093509190910190600101610532565b50909695505050505050565b805f5b60038110156105945781511515845260209384019390910190600101610573565b50505050565b602081525f825161016060208401526105b76101808401826104e8565b90506020840151601f198483030160408501526105d48282610516565b9150506040840151601f198483030160608501526105f282826104e8565b9150506060840151601f1984830301608085015261061082826104e8565b9150506080840151601f198483030160a085015261062e82826104e8565b91505060a0840151601f198483030160c085015261064c82826104e8565b91505060c0840151601f198483030160e085015261066a82826104e8565b91505060e084015161010084015261010084015161068c610120850182610570565b509392505050565b5f5f604083850312156106a5575f5ffd5b82356001600160a01b03811681146106bb575f5ffd5b9150602083013580151581146106cf575f5ffd5b809150509250929050565b634e487b7160e01b5f52603260045260245ffdfea264697066735822122093b669a94b455a0182163855a108cad15936eef94eb0ba7f92f2292207b9436d64736f6c634300081c0033",
  "linkReferences": {},
  "deployedLinkReferences": {}
}