{
  "contracts/MockSelfAgentRegistry.sol": {
    "MockSelfAgentRegistry": {
      "abi": [
        {
          "stateMutability": "nonpayable",
          "type": "fallback"
        },
        {
          "inputs": [
            {
              "internalType": "uint256",
              "name": "",
              "type": "uint256"
            }
          ],
          "name": "getAgentCredentials",
          "outputs": [
            {
              "components": [
                {
                  "internalType": "string",
                  "name": "issuingState",
                  "type": "string"
                },
                {
                  "internalType": "string[]",
                  "name": "name",
                  "type": "string[]"
                },
                {
                  "internalType": "string",
                  "name": "idNumber",
                  "type": "string"
                },
                {
                  "internalType": "string",
                  "name": "nationality",
                  "type": "string"
                },
                {
                  "internalType": "string",
                  "name": "dateOfBirth",
                  "type": "string"
                },
                {
                  "internalType": "string",
                  "name": "gender",
                  "type": "string"
                },
                {
                  "internalType": "string",
                  "name": "expiryDate",
                  "type": "string"
                },
                {
                  "internalType": "uint256",
                  "name": "olderThan",
                  "type": "uint256"
                },
                {
                  "internalType": "bool[3]",
                  "name": "ofac",
                  "type": "bool[3]"
                }
              ],
              "internalType": "struct ISelfAgentRegistry.AgentCredentials",
              "name": "",
              "type": "tuple"
            }
          ],
          "stateMutability": "view",
          "type": "function"
        },
        {
          "inputs": [
            {
              "internalType": "bytes32",
              "name": "agentKey",
              "type": "bytes32"
            }
          ],
          "name": "getAgentId",
          "outputs": [
            {
              "internalType": "uint256",
              "name": "",
              "type": "uint256"
            }
          ],
          "stateMutability": "view",
          "type": "function"
        },
        {
          "inputs": [
            {
              "internalType": "bytes32",
              "name": "agentKey",
              "type": "bytes32"
            }
          ],
          "name": "isAgentVerified",
          "outputs": [
            {
              "internalType": "bool",
              "name": "",
              "type": "bool"
            }
          ],
          "stateMutability": "view",
          "type": "function"
        },
        {
          "inputs": [
            {
              "internalType": "uint256",
              "name": "",
              "type": "uint256"
            }
          ],
          "name": "isProofFresh",
          "outputs": [
            {
              "internalType": "bool",
              "name": "",
              "type": "bool"
            }
          ],
          "stateMutability": "view",
          "type": "function"
        },
        {
          "inputs": [
            {
              "internalType": "bytes32",
              "name": "agentKey",
              "type": "bytes32"
            }
          ],
          "name": "isVerified",
          "outputs": [
            {
              "internalType": "bool",
              "name": "",
              "type": "bool"
            }
          ],
          "stateMutability": "view",
          "type": "function"
        },
        {
          "inputs": [
            {
              "internalType": "bytes32",
              "name": "agentKey",
              "type": "bytes32"
            }
          ],
          "name": "isVerifiedAgent",
          "outputs": [
            {
              "internalType": "bool",
              "name": "",
              "type": "bool"
            }
          ],
          "stateMutability": "view",
          "type": "function"
        },
        {
          "inputs": [
            {
              "internalType": "address",
              "name": "account",
              "type": "address"
            },
            {
              "internalType": "bool",
              "name": "isVerified",
              "type": "bool"
            }
          ],
          "name": "setVerified",
          "outputs": [],
          "stateMutability": "nonpayable",
          "type": "function"
        },
        {
          "inputs": [
            {
              "internalType": "uint256",
              "name": "",
              "type": "uint256"
            },
            {
              "internalType": "bytes",
              "name": "",
              "type": "bytes"
            },
            {
              "internalType": "uint256[]",
              "name": "",
              "type": "uint256[]"
            }
          ],
          "name": "submitProof",
          "outputs": [
            {
              "internalType": "bool",
              "name": "",
              "type": "bool"
            }
          ],
          "stateMutability": "nonpayable",
          "type": "function"
        },
        {
          "inputs": [
            {
              "internalType": "bytes32",
              "name": "",
              "type": "bytes32"
            }
          ],
          "name": "verified",
          "outputs": [
            {
              "internalType": "bool",
              "name": "",
              "type": "bool"
            }
          ],
          "stateMutability": "view",
          "type": "function"
        },
        {
          "stateMutability": "payable",
          "type": "receive"
        }
      ],
      "evm": {
        "bytecode": {
          "linkReferences": {},
          "object": "6080604052348015600e575f5ffd5b506107248061001c5f395ff3fe608060405260043610610089575f3560e01c80637d08e2f3116100585780637d08e2f31461014b5780639cf5c6131461016b578063bc936c52146101af578063c181b273146100f1578063c59e43e5146101da57610090565b8063048e5e611461009d57806310a5cdbc146100f157806329f0e31e146100f1578063364c7e611461011f57610090565b3661009057005b34801561009b575f5ffd5b005b3480156100a8575f5ffd5b506100dc6100b7366004610429565b335f908152602081905260409020805460ff1916600190811790915595945050505050565b60405190151581526020015b60405180910390f35b3480156100fc575f5ffd5b506100dc61010b3660046104d1565b5f9081526020819052604090205460ff1690565b34801561012a575f5ffd5b5061013e6101393660046104d1565b610208565b6040516100e8919061059a565b348015610156575f5ffd5b506100dc6101653660046104d1565b50600190565b348015610176575f5ffd5b5061009b610185366004610694565b6001600160a01b03919091165f908152602081905260409020805460ff1916911515919091179055565b3480156101ba575f5ffd5b506101cc6101c93660046104d1565b90565b6040519081526020016100e8565b3480156101e5575f5ffd5b506100dc6101f43660046104d1565b5f6020819052908152604090205460ff1681565b610210610373565b6040805160018082528183019092525f91816020015b60608152602001906001900390816102265790505090506040518060400160405280600e81526020016d2b32b934b334b2b210243ab6b0b760911b815250815f81518110610276576102766106da565b60209081029190910181019190915260408051606080820183525f808352828501819052828401528251610160810184526002610120820181815261555360f01b610140840181905290835282870197909752845180860186526005815264313233343560d81b818801528286015284518086018652908152808601969096529081019490945281518083018352600a80825269313939302d30312d303160b01b8286015260808601919091528251808401845260018152604d60f81b8186015260a08601528251808401909352825269323033302d30312d303160b01b9282019290925260c0830152601260e083015261010082015292915050565b604051806101200160405280606081526020016060815260200160608152602001606081526020016060815260200160608152602001606081526020015f81526020016103be6103c3565b905290565b60405180606001604052806003906020820280368337509192915050565b5f5f83601f8401126103f1575f5ffd5b50813567ffffffffffffffff811115610408575f5ffd5b6020830191508360208260051b8501011115610422575f5ffd5b9250929050565b5f5f5f5f5f6060868803121561043d575f5ffd5b85359450602086013567ffffffffffffffff81111561045a575f5ffd5b8601601f8101881361046a575f5ffd5b803567ffffffffffffffff811115610480575f5ffd5b886020828401011115610491575f5ffd5b60209190910194509250604086013567ffffffffffffffff8111156104b4575f5ffd5b6104c0888289016103e1565b969995985093965092949392505050565b5f602082840312156104e1575f5ffd5b5035919050565b5f81518084528060208401602086015e5f602082860101526020601f19601f83011685010191505092915050565b5f82825180855260208501945060208160051b830101602085015f5b8381101561056457601f1985840301885261054e8383516104e8565b6020988901989093509190910190600101610532565b50909695505050505050565b805f5b60038110156105945781511515845260209384019390910190600101610573565b50505050565b602081525f825161016060208401526105b76101808401826104e8565b90506020840151601f198483030160408501526105d48282610516565b9150506040840151601f198483030160608501526105f282826104e8565b9150506060840151601f1984830301608085015261061082826104e8565b9150506080840151601f198483030160a085015261062e82826104e8565b91505060a0840151601f198483030160c085015261064c82826104e8565b91505060c0840151601f198483030160e085015261066a82826104e8565b91505060e084015161010084015261010084015161068c610120850182610570565b509392505050565b5f5f604083850312156106a5575f5ffd5b82356001600160a01b03811681146106bb575f5ffd5b9150602083013580151581146106cf575f5ffd5b809150509250929050565b634e487b7160e01b5f52603260045260245ffdfea264697066735822122093b669a94b455a0182163855a108cad15936eef94eb0ba7f92f2292207b9436d64736f6c634300081c0033",
          "opcodes": "PUSH1 0x80 PUSH1 0x40 MSTORE CALLVALUE DUP1 ISZERO PUSH1 0xE JUMPI PUSH0 PUSH0 REVERT JUMPDEST POP PUSH2 0x724 DUP1 PUSH2 0x1C PUSH0 CODECOPY PUSH0 RETURN INVALID PUSH1 0x80 PUSH1 0x40 MSTORE PUSH1 0x4 CALLDATASIZE LT PUSH2 0x89 JUMPI PUSH0 CALLDATALOAD PUSH1 0xE0 SHR DUP1 PUSH4 0x7D08E2F3 GT PUSH2 0x58 JUMPI DUP1 PUSH4 0x7D08E2F3 EQ PUSH2 0x14B JUMPI DUP1 PUSH4 0x9CF5C613 EQ PUSH2 0x16B JUMPI DUP1 PUSH4 0xBC936C52 EQ PUSH2 0x1AF JUMPI DUP1 PUSH4 0xC181B273 EQ PUSH2 0xF1 JUMPI DUP1 PUSH4 0xC59E43E5 EQ PUSH2 0x1DA JUMPI PUSH2 0x90 JUMP JUMPDEST DUP1 PUSH4 0x48E5E61 EQ PUSH2 0x9D JUMPI DUP1 PUSH4 0x10A5CDBC EQ PUSH2 0xF1 JUMPI DUP1 PUSH4 0x29F0E31E EQ PUSH2 0xF1 JUMPI DUP1 PUSH4 0x364C7E61 EQ PUSH2 0x11F JUMPI PUSH2 0x90 JUMP JUMPDEST CALLDATASIZE PUSH2 0x90 JUMPI STOP JUMPDEST CALLVALUE DUP1 ISZERO PUSH2 0x9B JUMPI PUSH0 PUSH0 REVERT JUMPDEST STOP JUMPDEST CALLVALUE DUP1 ISZERO PUSH2 0xA8 JUMPI PUSH0 PUSH0 REVERT JUMPDEST POP PUSH2 0xDC PUSH2 0xB7 CALLDATASIZE PUSH1 0x4 PUSH2 0x429 JUMP JUMPDEST CALLER PUSH0 SWAP1 DUP2 MSTORE PUSH1 0x20 DUP2 SWAP1 MSTORE PUSH1 0x40 SWAP1 KECCAK256 DUP1 SLOAD PUSH1 0xFF NOT AND PUSH1 0x1 SWAP1 DUP2 OR SWAP1 SWAP2 SSTORE SWAP6 SWAP5 POP POP POP POP POP JUMP JUMPDEST PUSH1 0x40 MLOAD SWAP1 ISZERO ISZERO DUP2 MSTORE PUSH1 0x20 ADD JUMPDEST PUSH1 0x40 MLOAD DUP1 SWAP2 SUB SWAP1 RETURN JUMPDEST CALLVALUE DUP1 ISZERO PUSH2 0xFC JUMPI PUSH0 PUSH0 REVERT JUMPDEST POP PUSH2 0xDC PUSH2 0x10B CALLDATASIZE PUSH1 0x4 PUSH2 0x4D1 JUMP JUMPDEST PUSH0 SWAP1 DUP2 MSTORE PUSH1 0x20 DUP2 SWAP1 MSTORE PUSH1 0x40 SWAP1 KECCAK256 SLOAD PUSH1 0xFF AND SWAP1 JUMP JUMPDEST CALLVALUE DUP1 ISZERO PUSH2 0x12A JUMPI PUSH0 PUSH0 REVERT JUMPDEST POP PUSH2 0x13E PUSH2 0x139 CALLDATASIZE PUSH1 0x4 PUSH2 0x4D1 JUMP JUMPDEST PUSH2 0x208 JUMP JUMPDEST PUSH1 0x40 MLOAD PUSH2 0xE8 SWAP2 SWAP1 PUSH2 0x59A JUMP JUMPDEST CALLVALUE DUP1 ISZERO PUSH2 0x156 JUMPI PUSH0 PUSH0 REVERT JUMPDEST POP PUSH2 0xDC PUSH2 0x165 CALLDATASIZE PUSH1 0x4 PUSH2 0x4D1 JUMP JUMPDEST POP PUSH1 0x1 SWAP1 JUMP JUMPDEST CALLVALUE DUP1 ISZERO PUSH2 0x176 JUMPI PUSH0 PUSH0 REVERT JUMPDEST POP PUSH2 0x9B PUSH2 0x185 CALLDATASIZE PUSH1 0x4 PUSH2 0x694 JUMP JUMPDEST PUSH1 0x1 PUSH1 0x1 PUSH1 0xA0 SHL SUB SWAP2 SWAP1 SWAP2 AND PUSH0 SWAP1 DUP2 MSTORE PUSH1 0x20 DUP2 SWAP1 MSTORE PUSH1 0x40 SWAP1 KECCAK256 DUP1 SLOAD PUSH1 0xFF NOT AND SWAP2 ISZERO ISZERO SWAP2 SWAP1 SWAP2 OR SWAP1 SSTORE JUMP JUMPDEST CALLVALUE DUP1 ISZERO PUSH2 0x1BA JUMPI PUSH0 PUSH0 REVERT JUMPDEST POP PUSH2 0x1CC PUSH2 0x1C9 CALLDATASIZE PUSH1 0x4 PUSH2 0x4D1 JUMP JUMPDEST SWAP1 JUMP JUMPDEST PUSH1 0x40 MLOAD SWAP1 DUP2 MSTORE PUSH1 0x20 ADD PUSH2 0xE8 JUMP JUMPDEST CALLVALUE DUP1 ISZERO PUSH2 0x1E5 JUMPI PUSH0 PUSH0 REVERT JUMPDEST POP PUSH2 0xDC PUSH2 0x1F4 CALLDATASIZE PUSH1 0x4 PUSH2 0x4D1 JUMP JUMPDEST PUSH0 PUSH1 0x20 DUP2 SWAP1 MSTORE SWAP1 DUP2 MSTORE PUSH1 0x40 SWAP1 KECCAK256 SLOAD PUSH1 0xFF AND DUP2 JUMP JUMPDEST PUSH2 0x210 PUSH2 0x373 JUMP JUMPDEST PUSH1 0x40 DUP1 MLOAD PUSH1 0x1 DUP1 DUP3 MSTORE DUP2 DUP4 ADD SWAP1 SWAP3 MSTORE PUSH0 SWAP2 DUP2 PUSH1 0x20 ADD JUMPDEST PUSH1 0x60 DUP2 MSTORE PUSH1 0x20 ADD SWAP1 PUSH1 0x1 SWAP1 SUB SWAP1 DUP2 PUSH2 0x226 JUMPI SWAP1 POP POP SWAP1 POP PUSH1 0x40 MLOAD DUP1 PUSH1 0x40 ADD PUSH1 0x40 MSTORE DUP1 PUSH1 0xE DUP2 MSTORE PUSH1 0x20 ADD PUSH14 0x2B32B934B334B2B210243AB6B0B7 PUSH1 0x91 SHL DUP2 MSTORE POP DUP2 PUSH0 DUP2 MLOAD DUP2 LT PUSH2 0x276 JUMPI PUSH2 0x276 PUSH2 0x6DA JUMP JUMPDEST PUSH1 0x20 SWAP1 DUP2 MUL SWAP2 SWAP1 SWAP2 ADD DUP2 ADD SWAP2 SWAP1 SWAP2 MSTORE PUSH1 0x40 DUP1 MLOAD PUSH1 0x60 DUP1 DUP3 ADD DUP4 MSTORE PUSH0 DUP1 DUP4 MSTORE DUP3 DUP6 ADD DUP2 SWAP1 MSTORE DUP3 DUP5 ADD MSTORE DUP3 MLOAD PUSH2 0x160 DUP2 ADD DUP5 MSTORE PUSH1 0x2 PUSH2 0x120 DUP3 ADD DUP2 DUP2 MSTORE PUSH2 0x5553 PUSH1 0xF0 SHL PUSH2 0x140 DUP5 ADD DUP2 SWAP1 MSTORE SWAP1 DUP4 MSTORE DUP3 DUP8 ADD SWAP8 SWAP1 SWAP8 MSTORE DUP5 MLOAD DUP1 DUP7 ADD DUP7 MSTORE PUSH1 0x5 DUP2 MSTORE PUSH5 0x3132333435 PUSH1 0xD8 SHL DUP2 DUP9 ADD MSTORE DUP3 DUP7 ADD MSTORE DUP5 MLOAD DUP1 DUP7 ADD DUP7 MSTORE SWAP1 DUP2 MSTORE DUP1 DUP7 ADD SWAP7 SWAP1 SWAP7 MSTORE SWAP1 DUP2 ADD SWAP5 SWAP1 SWAP5 MSTORE DUP2 MLOAD DUP1 DUP4 ADD DUP4 MSTORE PUSH1 0xA DUP1 DUP3 MSTORE PUSH10 0x313939302D30312D3031 PUSH1 0xB0 SHL DUP3 DUP7 ADD MSTORE PUSH1 0x80 DUP7 ADD SWAP2 SWAP1 SWAP2 MSTORE DUP3 MLOAD DUP1 DUP5 ADD DUP5 MSTORE PUSH1 0x1 DUP2 MSTORE PUSH1 0x4D PUSH1 0xF8 SHL DUP2 DUP7 ADD MSTORE PUSH1 0xA0 DUP7 ADD MSTORE DUP3 MLOAD DUP1 DUP5 ADD SWAP1 SWAP4 MSTORE DUP3 MSTORE PUSH10 0x323033302D30312D3031 PUSH1 0xB0 SHL SWAP3 DUP3 ADD SWAP3 SWAP1 SWAP3 MSTORE PUSH1 0xC0 DUP4 ADD MSTORE PUSH1 0x12 PUSH1 0xE0 DUP4 ADD MSTORE PUSH2 0x100 DUP3 ADD MSTORE SWAP3 SWAP2 POP POP JUMP JUMPDEST PUSH1 0x40 MLOAD DUP1 PUSH2 0x120 ADD PUSH1 0x40 MSTORE DUP1 PUSH1 0x60 DUP2 MSTORE PUSH1 0x20 ADD PUSH1 0x60 DUP2 MSTORE PUSH1 0x20 ADD PUSH1 0x60 DUP2 MSTORE PUSH1 0x20 ADD PUSH1 0x60 DUP2 MSTORE PUSH1 0x20 ADD PUSH1 0x60 DUP2 MSTORE PUSH1 0x20 ADD PUSH1 0x60 DUP2 MSTORE PUSH1 0x20 ADD PUSH1 0x60 DUP2 MSTORE PUSH1 0x20 ADD PUSH0 DUP2 MSTORE PUSH1 0x20 ADD PUSH2 0x3BE PUSH2 0x3C3 JUMP JUMPDEST SWAP1 MSTORE SWAP1 JUMP JUMPDEST PUSH1 0x40 MLOAD DUP1 PUSH1 0x60 ADD PUSH1 0x40 MSTORE DUP1 PUSH1 0x3 SWAP1 PUSH1 0x20 DUP3 MUL DUP1 CALLDATASIZE DUP4 CALLDATACOPY POP SWAP2 SWAP3 SWAP2 POP POP JUMP JUMPDEST PUSH0 PUSH0 DUP4 PUSH1 0x1F DUP5 ADD SLT PUSH2 0x3F1 JUMPI PUSH0 PUSH0 REVERT JUMPDEST POP DUP2 CALLDATALOAD PUSH8 0xFFFFFFFFFFFFFFFF DUP2 GT ISZERO PUSH2 0x408 JUMPI PUSH0 PUSH0 REVERT JUMPDEST PUSH1 0x20 DUP4 ADD SWAP2 POP DUP4 PUSH1 0x20 DUP3 PUSH1 0x5 SHL DUP6 ADD ADD GT ISZERO PUSH2 0x422 JUMPI PUSH0 PUSH0 REVERT JUMPDEST SWAP3 POP SWAP3 SWAP1 POP JUMP JUMPDEST PUSH0 PUSH0 PUSH0 PUSH0 PUSH0 PUSH1 0x60 DUP7 DUP9 SUB SLT ISZERO PUSH2 0x43D JUMPI PUSH0 PUSH0 REVERT JUMPDEST DUP6 CALLDATALOAD SWAP5 POP PUSH1 0x20 DUP7 ADD CALLDATALOAD PUSH8 0xFFFFFFFFFFFFFFFF DUP2 GT ISZERO PUSH2 0x45A JUMPI PUSH0 PUSH0 REVERT JUMPDEST DUP7 ADD PUSH1 0x1F DUP2 ADD DUP9 SGT PUSH2 0x46A JUMPI PUSH0 PUSH0 REVERT JUMPDEST DUP1 CALLDATALOAD PUSH8 0xFFFFFFFFFFFFFFFF DUP2 GT ISZERO PUSH2 0x480 JUMPI PUSH0 PUSH0 REVERT JUMPDEST DUP9 PUSH1 0x20 DUP3 DUP5 ADD ADD GT ISZERO PUSH2 0x491 JUMPI PUSH0 PUSH0 REVERT JUMPDEST PUSH1 0x20 SWAP2 SWAP1 SWAP2 ADD SWAP5 POP SWAP3 POP PUSH1 0x40 DUP7 ADD CALLDATALOAD PUSH8 0xFFFFFFFFFFFFFFFF DUP2 GT ISZERO PUSH2 0x4B4 JUMPI PUSH0 PUSH0 REVERT JUMPDEST PUSH2 0x4C0 DUP9 DUP3 DUP10 ADD PUSH2 0x3E1 JUMP JUMPDEST SWAP7 SWAP10 SWAP6 SWAP9 POP SWAP4 SWAP7 POP SWAP3 SWAP5 SWAP4 SWAP3 POP POP POP JUMP JUMPDEST PUSH0 PUSH1 0x20 DUP3 DUP5 SUB SLT ISZERO PUSH2 0x4E1 JUMPI PUSH0 PUSH0 REVERT JUMPDEST POP CALLDATALOAD SWAP2 SWAP1 POP JUMP JUMPDEST PUSH0 DUP2 MLOAD DUP1 DUP5 MSTORE DUP1 PUSH1 0x20 DUP5 ADD PUSH1 0x20 DUP7 ADD MCOPY PUSH0 PUSH1 0x20 DUP3 DUP7 ADD ADD MSTORE PUSH1 0x20 PUSH1 0x1F NOT PUSH1 0x1F DUP4 ADD AND DUP6 ADD ADD SWAP2 POP POP SWAP3 SWAP2 POP POP JUMP JUMPDEST PUSH0 DUP3 DUP3 MLOAD DUP1 DUP6 MSTORE PUSH1 0x20 DUP6 ADD SWAP5 POP PUSH1 0x20 DUP2 PUSH1 0x5 SHL DUP4 ADD ADD PUSH1 0x20 DUP6 ADD PUSH0 JUMPDEST DUP4 DUP2 LT ISZERO PUSH2 0x564 JUMPI PUSH1 0x1F NOT DUP6 DUP5 SUB ADD DUP9 MSTORE PUSH2 0x54E DUP4 DUP4 MLOAD PUSH2 0x4E8 JUMP JUMPDEST PUSH1 0x20 SWAP9 DUP10 ADD SWAP9 SWAP1 SWAP4 POP SWAP2 SWAP1 SWAP2 ADD SWAP1 PUSH1 0x1 ADD PUSH2 0x532 JUMP JUMPDEST POP SWAP1 SWAP7 SWAP6 POP POP POP POP POP POP JUMP JUMPDEST DUP1 PUSH0 JUMPDEST PUSH1 0x3 DUP2 LT ISZERO PUSH2 0x594 JUMPI DUP2 MLOAD ISZERO ISZERO DUP5 MSTORE PUSH1 0x20 SWAP4 DUP5 ADD SWAP4 SWAP1 SWAP2 ADD SWAP1 PUSH1 0x1 ADD PUSH2 0x573 JUMP JUMPDEST POP POP POP POP JUMP JUMPDEST PUSH1 0x20 DUP2 MSTORE PUSH0 DUP3 MLOAD PUSH2 0x160 PUSH1 0x20 DUP5 ADD MSTORE PUSH2 0x5B7 PUSH2 0x180 DUP5 ADD DUP3 PUSH2 0x4E8 JUMP JUMPDEST SWAP1 POP PUSH1 0x20 DUP5 ADD MLOAD PUSH1 0x1F NOT DUP5 DUP4 SUB ADD PUSH1 0x40 DUP6 ADD MSTORE PUSH2 0x5D4 DUP3 DUP3 PUSH2 0x516 JUMP JUMPDEST SWAP2 POP POP PUSH1 0x40 DUP5 ADD MLOAD PUSH1 0x1F NOT DUP5 DUP4 SUB ADD PUSH1 0x60 DUP6 ADD MSTORE PUSH2 0x5F2 DUP3 DUP3 PUSH2 0x4E8 JUMP JUMPDEST SWAP2 POP POP PUSH1 0x60 DUP5 ADD MLOAD PUSH1 0x1F NOT DUP5 DUP4 SUB ADD PUSH1 0x80 DUP6 ADD MSTORE PUSH2 0x610 DUP3 DUP3 PUSH2 0x4E8 JUMP JUMPDEST SWAP2 POP POP PUSH1 0x80 DUP5 ADD MLOAD PUSH1 0x1F NOT DUP5 DUP4 SUB ADD PUSH1 0xA0 DUP6 ADD MSTORE PUSH2 0x62E DUP3 DUP3 PUSH2 0x4E8 JUMP JUMPDEST SWAP2 POP POP PUSH1 0xA0 DUP5 ADD MLOAD PUSH1 0x1F NOT DUP5 DUP4 SUB ADD PUSH1 0xC0 DUP6 ADD MSTORE PUSH2 0x64C DUP3 DUP3 PUSH2 0x4E8 JUMP JUMPDEST SWAP2 POP POP PUSH1 0xC0 DUP5 ADD MLOAD PUSH1 0x1F NOT DUP5 DUP4 SUB ADD PUSH1 0xE0 DUP6 ADD MSTORE PUSH2 0x66A DUP3 DUP3 PUSH2 0x4E8 JUMP JUMPDEST SWAP2 POP POP PUSH1 0xE0 DUP5 ADD MLOAD PUSH2 0x100 DUP5 ADD MSTORE PUSH2 0x100 DUP5 ADD MLOAD PUSH2 0x68C PUSH2 0x120 DUP6 ADD DUP3 PUSH2 0x570 JUMP JUMPDEST POP SWAP4 SWAP3 POP POP POP JUMP JUMPDEST PUSH0 PUSH0 PUSH1 0x40 DUP4 DUP6 SUB SLT ISZERO PUSH2 0x6A5 JUMPI PUSH0 PUSH0 REVERT JUMPDEST DUP3 CALLDATALOAD PUSH1 0x1 PUSH1 0x1 PUSH1 0xA0 SHL SUB DUP2 AND DUP2 EQ PUSH2 0x6BB JUMPI PUSH0 PUSH0 REVERT JUMPDEST SWAP2 POP PUSH1 0x20 DUP4 ADD CALLDATALOAD DUP1 ISZERO ISZERO DUP2 EQ PUSH2 0x6CF JUMPI PUSH0 PUSH0 REVERT JUMPDEST DUP1 SWAP2 POP POP SWAP3 POP SWAP3 SWAP1 POP JUMP JUMPDEST PUSH4 0x4E487B71 PUSH1 0xE0 SHL PUSH0 MSTORE PUSH1 0x32 PUSH1 0x4 MSTORE PUSH1 0x24 PUSH0 REVERT INVALID LOG2 PUSH5 0x6970667358 0x22 SLT KECCAK256 SWAP4 0xB6 PUSH10 0xA94B455A0182163855A1 ADDMOD 0xCA 0xD1 MSIZE CALLDATASIZE 0xEE 0xF9 0x4E 0xB0 0xBA PUSH32 0x92F2292207B9436D64736F6C634300081C003300000000000000000000000000 "
        },
        "methodIdentifiers": {
          "getAgentCredentials(uint256)": "364c7e61",
          "getAgentId(bytes32)": "bc936c52",
          "isAgentVerified(bytes32)": "10a5cdbc",
          "isProofFresh(uint256)": "7d08e2f3",
          "isVerified(bytes32)": "c181b273",
          "isVerifiedAgent(bytes32)": "29f0e31e",
          "setVerified(address,bool)": "9cf5c613",
          "submitProof(uint256,bytes,uint256[])": "048e5e61",
          "verified(bytes32)": "c59e43e5"
        }
      }
    }
  }
}